:060000000A128A1100291A
:10000800F000030EF1000B1810200B196721710E78
:100018008300F00E700E090003138312061C850A74
:08002800861C85030B10080083
:10020000082133212A213A21422171218D210529FA
:1002100003178316880189010313831685010313CD
:10022000831686010313831687010313831688013F
:100230000614861481131514951403138312850173
:10024000031383128601031383128701031383129E
:100250008801A00103138316161496140313831246
:1002600006080B100800031383160F178F160F12C2
:100270000F140800031383128B178B150B108B16AA
:100280000B110800031383168112811101158114CB
:10029000011403138312FA3081000B110800FA30A5
:1002A00081000B1108008A010A140F39820780347B
:1002B000F93424343034193412340234F83400342C
:1002C000103448340334C634213406340E344F21FC
:1002D00007108710071124188729A41881292419C9
:1002E0007B2921085321A50022085321A6002308B9
:1002F0005321A70008002508880007142411A4141E
:100300000800260888008714A41024140800270871
:1003100088000715241024150800A301A201A101DB
:100320000508A0006430A002A30A03189229A303C1
:100330006430A0079C2108000A30A002A20A03181A
:100340009C29A2030A30A007A62108000130A002C0
:0E035000A10A0318A629A1030130A007080086
:04400E00D420FF3E7D
:00000001FF
